:100000000C94A3000C94CB000C94CB000C94CB006C
:100010000C94CB000C94CB000C94CB000C94CB0034
:100020000C94CB000C94CB000C94CB000C94CB0024
:100030000C94CB000C94CB000C94CB000C94CB0014
:100040000C9426060C94CB000C94F4050C94CE056D
:100050000C94CB000C94CB000C94CB000C94CB00F4
:100060000C9470060C94CB0007634236B79BD8A75C
:100070001A39685618AEBAAB558C1D3CB7CC5763CD
:10008000BD6DEDFD753EF6177231BF000000803F7B
:1000900008000000BE922449123EABAAAA2ABECD97
:1000A000CCCC4C3E00000080BEABAAAAAA3E000009
:1000B0000000BF000000803F000000000008417801
:1000C000D3BB4387D1133D190E3CC3BD4282AD2B38
:1000D0003E68EC8276BED98FE1A93E4C80EFFFBE30
:1000E00001C4FF7F3F00000000000000000024006A
:1000F00027002A0000000000250028002B00000037
:10010000000023002600290004040404040404045D
:1001100002020202020203030303030301020408B2
:100120001020408001020408102001020408102061
:1001300000000008000201000003040700000000A6
:10014000000000008F0711241FBECFEFD8E0DEBFF4
:10015000CDBF11E0A0E0B1E0ECEBFCE102C0059006
:100160000D92AE39B107D9F724E0AEE9B1E001C094
:100170001D92AF30B207E1F710E0C3EAD0E004C04F
:100180002197FE010E94560EC23AD107C9F70E947C
:10019000D3070C945C0E0C940000982F2091600300
:1001A00081E0213208F043C080913C038111FCCFF3
:1001B00080915F0332E030933C0390933B039FEFC9
:1001C00090933A031092390320933803AFE3B3E0DE
:1001D000E8E1F3E090E0291331C010921703909109
:1001E0001703880F892B80931703809116038130A2
:1001F00049F510921603809117038093BB008091FC
:10020000BC0083FDF8CF85EC8093BC0080913C035B
:100210008230E1F380913A038F3FB1F080913A034D
:100220008032A1F080913A03803391F084E0109203
:100230003E031092600310923D0308953D91319367
:100240009F5FC9CF85EEE0CF80E0F1CF82E0EFCFB6
:1002500083E0EDCF08950895AF92BF92CF92DF92E1
:10026000EF92FF920F931F93CF93DF936C017B016B
:100270008B01040F151FEB015E01AE18BF08C017FC
:10028000D10759F06991D601ED91FC910190F0816F
:10029000E02DC6010995892B79F7C501DF91CF9132
:1002A0001F910F91FF90EF90DF90CF90BF90AF9094
:1002B0000895FC01538D448D252F30E0842F90E06C
:1002C000821B930B541710F0CF9608950197089551
:1002D000FC01918D828D981761F0A28DAE0FBF2F1A
:1002E000B11D5D968C91928D9F5F9F73928F90E070
:1002F00008958FEF9FEF0895FC01918D828D9817DF
:1003000031F0828DE80FF11D858D90E008958FEF1B
:100310009FEF0895FC01918D228D892F90E0805CE4
:100320009F4F821B91098F739927089581E693E06F
:100330000E948A0121E0892B09F420E0822F089590
:1003400080E090E0892B29F00E94960181110C94A5
:1003500000000895FC01A48DA80FB92FB11DA35A68
:10036000BF4F2C91848D90E001968F739927848FD5
:10037000A689B7892C93A089B1898C9183708064F8
:100380008C93938D848D981306C00288F389E02D99
:1003900080818F7D80830895EF92FF920F931F934A
:1003A000CF93DF93EC0181E0888F9B8D8C8D981328
:1003B0001AC0E889F989808185FF15C09FB7F89434
:1003C000EE89FF896083E889F98980818370806480
:1003D00080839FBF81E090E0DF91CF911F910F91CB
:1003E000FF90EF900895F62E0B8D10E00F5F1F4FDA
:1003F0000F731127E02E8C8D8E110CC00FB607FCE9
:10040000FACFE889F989808185FFF5CFCE010E9476
:10041000AA01F1CFEB8DEC0FFD2FF11DE35AFF4F39
:10042000F0829FB7F8940B8FEA89FB898081806204
:10043000CFCFCF93DF93EC01888D8823B9F0AA89C1
:10044000BB89E889F9898C9185FD03C0808186FD8F
:100450000DC00FB607FCF7CF8C9185FFF2CF8081DE
:1004600085FFEDCFCE010E94AA01E9CFDF91CF91A8
:100470000895833081F028F4813099F08230A9F01A
:1004800008958730A9F08830C9F08430B1F48091A4
:1004900080008F7D03C0809180008F7780938000E3
:1004A000089584B58F7784BD089584B58F7DFBCF83
:1004B0008091B0008F778093B00008958091B00054
:1004C0008F7DF9CF1F93CF93DF93282F30E0F90171
:1004D000E05DFE4F8491F901E45EFE4FD491F90195
:1004E000E85FFE4FC491CC23A9F0162F81110E9422
:1004F0003902EC2FF0E0EE0FFF1FEC50FF4FA591FB
:10050000B4918FB7F894EC91111108C0D095DE2307
:10051000DC938FBFDF91CF911F910895DE2BF8CF31
:10052000CF93DF9390E0FC01E45EFE4F2491885F5F
:100530009E4FFC0184918823D1F090E0880F991F91
:10054000FC01E651FF4FA591B491FC01EC50FF4F27
:10055000C591D49161110EC09FB7F8948C91E22F90
:10056000E0958E238C932881E223E8839FBFDF915F
:10057000CF9108958FB7F894EC91E22BEC938FBF55
:10058000F6CF1F93CF93DF93182FEB0161E00E940A
:100590009002209739F460E0812FDF91CF911F9175
:1005A0000C946202CF3FD10511F461E0F5CFE12F49
:1005B000F0E0E05DFE4FE491E33031F140F4E130F2
:1005C000B1F0E230E1F0C038D1057CF7E4CFE7309C
:1005D00029F1E83059F1E430B1F780918000806270
:1005E00080938000D0938B00C0938A0004C084B5B0
:1005F000806884BDC7BDDF91CF911F91089584B5F8
:10060000806284BDC8BDF7CF8091800080688093F0
:100610008000D0938900C0938800EDCF8091B00016
:1006200080688093B000C093B300E5CF8091B000A4
:1006300080628093B000C093B400DDCF3FB7F894E0
:100640008091E6019091E701A091E801B091E90164
:1006500026B5A89B05C02F3F19F00196A11DB11D1D
:100660003FBFBA2FA92F982F8827BC01CD01620F59
:10067000711D811D911D42E0660F771F881F991F14
:100680004A95D1F708958F929F92AF92BF92CF92E1
:10069000DF92EF92FF926B017C010E941E034B01DF
:1006A0005C01C114D104E104F104B9F00E941E03FD
:1006B000681979098A099B09683E7340810591058B
:1006C00080F321E0C21AD108E108F10888EE880E13
:1006D00083E0981EA11CB11CE4CFFF90EF90DF9047
:1006E000CF90BF90AF909F908F90089585ED8093AD
:1006F000BC008091BC0084FDFCCF10923C030895A7
:100700002091BE01260F3327331F21323105ECF42F
:1007100020913C03FC0190E080E0243069F082E00D
:100720000895A091BE012191AC0142565E4FA40FE5
:10073000B52FB11D2C930196861798F38091BE01B9
:10074000680F6093BE0180E0089581E008950895E8
:10075000E091F5028091F402E81730F4F0E0EA50FD
:10076000FD4F808190E008958FEF9FEF0895909165
:10077000F5028091F4022FEF3FEF981748F4E92F2C
:10078000F0E0EA50FD4F208130E09F5F9093F5024A
:10079000C90108958091F4029091F502891B990B8B
:1007A0000895CF92DF92EF92FF920F931F93CF9312
:1007B000DF937C01CB018A0120913D03222389F044
:1007C000EB016B01C40ED51ECC15DD0569F06991F6
:1007D000D701ED91FC910190F081E02DC7010995C1
:1007E000F3CF642F0E948003C801DF91CF911F9146
:1007F0000F91FF90EF90DF90CF900895CF93DF930C
:100800001F92CDB7DEB7698320913D032223F9F013
:1008100020916003203258F021E030E0FC01338366
:10082000228390E080E00F90DF91CF910895809136
:100830003E03E82FF0E0E15CFC4F998190838F5FED
:1008400080933E038093600381E090E0ECCF61E011
:10085000CE0101960E948003F7CFCF93C42F91E081
:1008600090933D0399E290935F0310923E031092A0
:100870006003682F60688EEF93E00E94FE036C2F88
:100880008EEF93E00E94FE0381E0CF910C94CD00A7
:1008900090E080E00895FC0101900020E9F7319795
:1008A000AF01481B590BBC0181E693E00C942C016D
:1008B00084E291E00C944B048F929F92AF92BF928E
:1008C0000F931F93CF93DF93CDB7DEB7A1970FB6EA
:1008D000F894DEBF0FBECDBF19A2423008F44AE043
:1008E0008E010F5D1F4F842E912CB12CA12CA501E0
:1008F00094010E94200EE62FB901CA01EA30F4F4F7
:10090000E05DD801EE938D01232B242B252B79F765
:1009100090E080E0109719F0CD010E944B04A19661
:100920000FB6F894DEBF0FBECDBFDF91CF911F9100
:100930000F91BF90AF909F908F900895E95CE1CFA9
:10094000CF92DF92EF92FF92CF93DF936B017C0106
:100950006DE281E693E00E94CC01EC0166277727E7
:10096000CB016C197D098E099F094AE00E945C0445
:100970008C0F9D1FDF91CF91FF90EF90DF90CF9074
:10098000089590913C039111FCCF282F91E0909312
:100990003C0390933B033FEF30933A0310923903AB
:1009A000380F309338039093170390911703926593
:1009B0009093170390911603913019F51092160336
:1009C000909117039093BB009091BC0093FDF8CFDA
:1009D00095EC9093BC0090913C039130E1F39091A1
:1009E0003903981710F420913903A8E1B3E0E6EF3A
:1009F000F2E080E0821307C01092F5028093F402C7
:100A0000089595EEE6CF9D9191938F5FF3CF91E09E
:100A100090933D0399E290935F0310923E031092EE
:100A20006003682F60688EEF93E00E94FE0381E010
:100A30000E94CD0081E090E00E94C1048EEF93E01F
:100A40000E94B7030895CF93DF9391E090933D0305
:100A500099E290935F0310923E0310926003682F17
:100A600060688EEF93E00E94FE0381E00E94CD005B
:100A700082E090E00E94C1048EEF93E00E94B703F1
:100A8000EC018EEF93E00E94B70320E0382FCE01F7
:100A9000822B932BDF91CF910895CF93DF93109208
:100AA000F5021092F40210923E031092600310922D
:100AB0003C03C1E0C0933B031092160361E082E166
:100AC0000E94620261E083E10E9462028091B900AB
:100AD0008E7F8093B9008091B9008D7F8093B9009B
:100AE00088E48093B80085E48093BC008AE291E0BA
:100AF0009093F3028093F2028BE291E09093F102E3
:100B00008093F00282E10E940705D82F682F70E0E1
:100B100090E080E040E10E945C040E94580480E084
:100B2000D434C9F5C0930A04C0910D04D0910E04C9
:100B3000AE0170E060E081E00E942D04D0930E04CD
:100B4000C0930D04C0910B04D0910C0480910A0451
:100B5000811102C00E944D05AE0170E060E08FE09F
:100B60000E942D04D0930C04C0930B0441E050E08C
:100B700060E070E080E00E942D0463E070E080E0BF
:100B800090E00E94430343E050E060E070E080E0CA
:100B90000E942D0481E0DF91CF9108951F920F9262
:100BA0000FB60F9211242F933F934F935F936F9340
:100BB0007F938F939F93AF93BF93EF93FF9381E6C0
:100BC00093E00E94AA01FF91EF91BF91AF919F9195
:100BD0008F917F916F915F914F913F912F910F90E6
:100BE0000FBE0F901F9018951F920F920FB60F9285
:100BF00011242F938F939F93EF93FF93E0917103B1
:100C0000F09172038081E0917703F091780382FD87
:100C10001BC0908180917A038F5F8F7320917B033B
:100C2000821741F0E0917A03F0E0EF59FC4F958F85
:100C300080937A03FF91EF919F918F912F910F9065
:100C40000FBE0F901F9018958081F4CF1F920F92C6
:100C50000FB60F9211242F933F938F939F93AF93CF
:100C6000BF938091E2019091E301A091E401B091E2
:100C7000E5013091E10123E0230F2D3758F501966E
:100C8000A11DB11D2093E1018093E2019093E30146
:100C9000A093E401B093E5018091E6019091E70112
:100CA000A091E801B091E9010196A11DB11D8093C9
:100CB000E6019093E701A093E801B093E901BF91A9
:100CC000AF919F918F913F912F910F900FBE0F90F9
:100CD0001F90189526E8230F0296A11DB11DD2CFB3
:100CE0001F920F920FB60F9211242F933F934F93A1
:100CF0005F936F937F938F939F93AF93BF93EF9384
:100D0000FF938091B900887F803609F44AC0F0F5DE
:100D1000883209F4A7C018F5803109F49BC0B8F4F3
:100D2000882309F4F9C0883009F494C0FF91EF9149
:100D3000BF91AF919F918F917F916F915F914F91F3
:100D40003F912F910F900FBE0F901F9018958831F3
:100D500009F488C0803251F780933A0314C080347C
:100D600009F49DC040F48033B9F38833F9F68093D9
:100D70003A0385ECB0C0803509F485C0883509F4A4
:100D800096C0883499F60E947603D0CF883909F44A
:100D90008CC038F5883729F050F4883611F0803748
:100DA00029F683E080933C031092E00157C0883815
:100DB00009F47BC0803919F0803809F0B7CF8091F1
:100DC000E001803208F071C0E091E00181E08E0F17
:100DD0008093E0018091BB00F0E0E054FE4F8083FF
:100DE0003DC0803B39F0E0F4803A09F479C0883A9C
:100DF00009F09CCF84E080933C031092BF011092D5
:100E0000BE01E091F202F091F30209958091BE01DA
:100E100081110FC081E08093BE0110929E0109C034
:100E2000803C09F4A6CF883C09F4A3CF883B09F0A5
:100E30007DCFE091BF0181E08E0F8093BF01F0E094
:100E4000E256FE4F80818093BB009091BF0180915C
:100E5000BE0129C0809117038093BB0085EC80936D
:100E6000BC0064CF9091390380913803981758F5EE
:100E7000E091390381E08E0F80933903F0E0E85E62
:100E8000FC4F8081E9CFE091390381E08E0F8093A0
:100E900039038091BB00F0E0E85EFC4F80839091C5
:100EA0003903809138039817C8F285E8D8CFE091CC
:100EB000390381E08E0F809339038091BB00F0E00D
:100EC000E85EFC4F808380913B0381115CCF81E021
:100ED0008093160384EA8093BC0010923C0326CFD3
:100EE00085EC8093BC0010923C038091E00180323D
:100EF00030F4E091E001F0E0E054FE4F10826091A8
:100F0000E00170E0E091F002F091F10280EC91E0FC
:100F100009951092E0010ACF10923A0334CFE1E62E
:100F2000F3E01382128288EE93E0A0E0B0E08483C5
:100F30009583A683B78324E031E03183208325ECB9
:100F400030E03587248724EC30E03787268720EC93
:100F500030E0318B208B21EC30E0338B228B22EC84
:100F600030E0358B248B26EC30E0378B268B118ECE
:100F7000128E138E148EEEEFF3E0138212828483AE
:100F80009583A683B78386E191E091838083EAE02D
:100F9000F4E010828BEE90E09483838381E090E014
:100FA000928381830895CF93DF9300D000D01F9266
:100FB000CDB7DEB7789484B5826084BD84B5816096
:100FC00084BD85B5826085BD85B5816085BD809114
:100FD0006E00816080936E0010928100809181008C
:100FE0008260809381008091810081608093810084
:100FF000809180008160809380008091B100846046
:101000008093B1008091B00081608093B0008091A6
:101010007A00846080937A0080917A008260809365
:101020007A0080917A00816080937A0080917A00C2
:10103000806880937A001092C100E0917103F09172
:10104000720382E08083E0916D03F0916E03108261
:10105000E0916F03F091700380E180831092790337
:10106000E0917503F091760386E08083E09173034D
:10107000F0917403808180618083E0917303F0912B
:101080007403808188608083E0917303F09174031E
:10109000808180688083E0917303F0917403808184
:1010A0008F7D80830E944D05882309F473C087E2F9
:1010B00091E00E944B040E94580461E083E00E948A
:1010C000900261E085E00E94900261E086E00E946B
:1010D000900261E088E00E94900260E087E00E9458
:1010E00090020AEE11E01A82198229813A81B9012F
:1010F000330F880B990B0E948E0B20E030E04FE7F6
:1011000053E40E94E40A20E030E040E250E40E9410
:10111000870C20E030E04FE753E40E941A0C9B015B
:10112000AC0160E070E08FE793E40E94770A0E94D0
:101130005D0BD8016D938D01E981FA813196FA83B7
:10114000E983E115F14089F648EE242E43E0342E80
:10115000E7E3F1E08491E3E2F1E0F491F983EFE079
:10116000F1E0F491FD83FF23E1F081110E94390247
:101170002D81E22FF0E0EE0FFF1FE250FF4FA5910F
:10118000B4918C913981382361F081E691E00E941D
:101190004B04FFCF84E391E00E944B040E9458046B
:1011A000FFCF83E480937C0080917A0080648093F9
:1011B0007A0080917A0086FDFCCF90917800809132
:1011C000790089279827892797FD4F9625E09595DF
:1011D00087952A95E1F701969093EF028093EE02AE
:1011E00088E691E00E944B046091EE027091EF025C
:1011F000072E000C880B990B97FF47C10E94A00493
:101200000E94580461E088E00E946202A091EE0210
:10121000B091EF02BA83A983BD01660F771F6A0FF1
:101220007B1FC1010E940C0E072E000C880B990B2E
:101230000E94430360E088E00E946202C10169816C
:101240007A810E940C0E072E000C880B990B0E94CD
:1012500043038091EC029091ED0201969093ED0290
:101260008093EC029093EB028093EA0280E00E946C
:1012700007058F7E482F50E070E060E080E00E941C
:101280002D0480910A04811102C00E944D0584E161
:101290000E9423056C0186E10E9423054C0188E130
:1012A0000E9423052C018AE10E9423058C01809174
:1012B0000D0490910E04853D910509F405C108F0D7
:1012C000E8C0009709F40AC1803C910509F401C106
:1012D00080E00E9407058061482F50E070E060E0E8
:1012E00080E00E942D048EE791E00E944B04F12CD7
:1012F000E12C4AE0C701B6010E945C0482E891E05B
:101300000E944B04B12CA12C4AE0C501B4010E94FB
:101310005C0487E891E00E944B04712C612C4AE048
:10132000C301B2010E945C048CE891E00E944B046E
:10133000C801B0E0A0E089839A83AB83BC834AE014
:10134000B801CD010E945C04C501B4010E948C0B60
:101350004B015C01C701B6010E948C0B6B017C0143
:10136000AC019B01C501B4010E94E40A4B015C0180
:10137000C301B2010E948C0BA70196010E94E40AEE
:101380002B013C0169817A818B819C810E948C0BAD
:10139000A70196010E94E40A6B017C018FE891E0AD
:1013A0000E944B0420E030E040E853E4C501B40162
:1013B0000E941A0C0E94560B4B01072E000C880B42
:1013C000990B40E10E945C0420E030E040E853E4E7
:1013D000C301B2010E941A0C0E94560B2B01072E6A
:1013E000000C880B990B40E10E945C0420E030E087
:1013F00040E853E4C701B6010E941A0C0E94560B44
:101400006B01072E000C880B990B40E10E945C04D5
:101410000E9458040E9458046091EA027091EB0205
:10142000072E000C880B990B97FF5DC00E94A0044B
:1014300081E991E00E944B040E9458040E945804E4
:10144000F401E651FE4F608170E083E00E94C1022A
:10145000F201E651FE4F608170E085E00E94C1021A
:10146000F601E651FE4F608170E086E00E94C10205
:10147000A0E0B0E0AB2B09F46BCE0E94960188236C
:1014800009F466CE0E94000063CE4AE00E945C042C
:10149000B7CE863F910599F08F3F910549F08B3E7D
:1014A000910509F015CF62E370E080E090E004C0A0
:1014B00063E070E080E090E00E94430309CF68E1C0
:1014C00070E080E090E0F8CF65E670E080E090E0CA
:1014D000F3CF6AE970E080E090E0EECF6CEB72E071
:1014E00080E090E0E9CF4AE00E945C04A1CF505830
:1014F000BB27AA270E948F0A0C94E00B0E94D20BF4
:1015000038F00E94D90B20F039F49F3F19F426F4EB
:101510000C94CF0B0EF4E095E7FB0C94C90BE92F6C
:101520000E94F10B58F3BA176207730784079507F7
:1015300020F079F4A6F50C94130C0EF4E0950B2E24
:10154000BA2FA02D0B01B90190010C01CA01A00115
:101550001124FF27591B99F0593F50F4503E68F170
:101560001A16F040A22F232F342F4427585FF3CFB1
:10157000469537952795A795F0405395C9F77EF482
:101580001F16BA0B620B730B840BBAF09150A1F0CB
:10159000FF0FBB1F661F771F881FC2F70EC0BA0F51
:1015A000621F731F841F48F4879577956795B795D9
:1015B000F7959E3F08F0B0CF9395880F08F09927D4
:1015C000EE0F9795879508950E94F80A0C94E00B0A
:1015D0000E94D90B58F00E94D20B40F029F45F3FD3
:1015E00029F00C94C90B51110C94140C0C94CF0BD2
:1015F0000E94F10B68F39923B1F3552391F3951BE6
:10160000550BBB27AA2762177307840738F09F5F23
:101610005F4F220F331F441FAA1FA9F335D00E2E90
:101620003AF0E0E832D091505040E695001CCAF7FD
:101630002BD0FE2F29D0660F771F881FBB1F2617C0
:1016400037074807AB07B0E809F0BB0B802DBF0197
:10165000FF2793585F4F3AF09E3F510578F00C9466
:10166000C90B0C94140C5F3FE4F3983ED4F38695B9
:1016700077956795B795F7959F5FC9F7880F911D87
:101680009695879597F90895E1E0660F771F881F73
:10169000BB1F621773078407BA0720F0621B730B26
:1016A000840BBA0BEE1F88F7E09508950E945D0B3E
:1016B0006894B1110C94140C08950E94F90B88F0F1
:1016C0009F5798F0B92F9927B751B0F0E1F0660F06
:1016D000771F881F991F1AF0BA95C9F714C0B13047
:1016E00091F00E94130CB1E008950C94130C672F35
:1016F000782F8827B85F39F0B93FCCF38695779576
:101700006795B395D9F73EF490958095709561955E
:101710007F4F8F4F9F4F0895E89409C097FB3EF489
:1017200090958095709561957F4F8F4F9F4F99232E
:10173000A9F0F92F96E9BB279395F69587957795AC
:101740006795B795F111F8CFFAF4BB0F11F460FF6C
:101750001BC06F5F7F4F8F4F9F4F16C0882311F0C4
:1017600096E911C0772321F09EE8872F762F05C0D8
:10177000662371F096E8862F70E060E02AF09A9573
:10178000660F771F881FDAF7880F9695879597F968
:10179000089597F99F6780E870E060E008959FEFF3
:1017A00080EC089500240A941616170618060906F8
:1017B000089500240A9412161306140605060895C7
:1017C000092E0394000C11F4882352F0BB0F40F44F
:1017D000BF2B11F460FF04C06F5F7F4F8F4F9F4F8F
:1017E000089557FD9058440F551F59F05F3F71F011
:1017F0004795880F97FB991F61F09F3F79F0879578
:101800000895121613061406551FF2CF4695F1DF00
:1018100008C0161617061806991FF1CF8695710590
:10182000610508940895E894BB2766277727CB01C4
:1018300097F908950E942D0C0C94E00B0E94D20B96
:1018400038F00E94D90B20F0952311F00C94C90BAD
:101850000C94CF0B11240C94140C0E94F10B70F318
:10186000959FC1F3950F50E0551F629FF001729F45
:10187000BB27F00DB11D639FAA27F00DB11DAA1F54
:10188000649F6627B00DA11D661F829F2227B00DA1
:10189000A11D621F739FB00DA11D621F839FA00D2C
:1018A000611D221F749F3327A00D611D231F849F7C
:1018B000600D211D822F762F6A2F11249F575040D3
:1018C0009AF0F1F088234AF0EE0FFF1FBB1F661F4E
:1018D000771F881F91505040A9F79E3F510580F017
:1018E0000C94C90B0C94140C5F3FE4F3983ED4F3B2
:1018F000869577956795B795F795E7959F5FC1F7BB
:10190000FE2B880F911D9695879597F90895FA01FA
:10191000EE0FFF1F309621053105A1F1611571050C
:1019200061F48038BFE39B0749F1689490388105E2
:1019300061F08038BFEF9B0741F099234AF5FF3FE4
:10194000E1053105210519F1E8940894E795D901DD
:10195000AA2329F4AB2FBE2FF85FD0F310C0FF5F8E
:1019600070F4A695E0F7F73950F019F0FF3A38F423
:101970009F779F930DD00F9007FC9058089546F0E5
:101980000C94CF0B60E070E080E89FE308954FE790
:101990009F775F934F933F932F930E94820D2F91D8
:1019A0003F914F915F910E941A0C0C94DF0C29F427
:1019B00016F00C94C90B0C94130C0C94CF0B0E94D2
:1019C000F90BA8F39638A0F707F80F92E8942BE3E9
:1019D0003AEA48EB5FE70E94300C0F920F920F92A9
:1019E0004DB75EB70F920E94CA0DE8E6F0E00E9484
:1019F000110D4F915F91EF91FF91E595EE1FFF1F44
:101A000049F0FE57E0684427EE0F441FFA95E1F7CE
:101A10004195550B0E94440D0F9007FE0C94380D14
:101A20000895DF93CF931F930F93FF92EF92DF926E
:101A30007B018C01689406C0DA2EEF010E942D0C08
:101A4000FE01E894A5912591359145915591A6F314
:101A5000EF010E948F0AFE019701A801DA9469F74D
:101A6000DF90EF90FF900F911F91CF91DF9108953C
:101A70009B01AC0160E070E080E89FE30C94E40A15
:101A80000C94C90B0C94FE0D0E94F90BD8F399230A
:101A9000C9F3940F511DA3F39150504094F059F0A5
:101AA000882332F0660F771F881F91505040C1F78E
:101AB0009E3F51052CF7880F911D9695879597F9B4
:101AC00008955F3FACF0983E9CF0BB2786957795D4
:101AD0006795B79508F4B1609395C1F7BB0F58F7B8
:101AE00011F460FFE8CF6F5F7F4F8F4F9F4FE3CFC1
:101AF0000C94140C16F00C94FE0D0C94CF0B6894FF
:101B00000C94C90B0E94F90BA8F39923C1F3AEF30F
:101B1000DF93CF931F930F93FF92C92FDD27882365
:101B20002AF02197660F771F881FDAF720E030E050
:101B300040E85FEB9FE3883920F0803E38F0219643
:101B40008F770E94780AE0E9F0E004C00E94780AEA
:101B5000EDEBF0E00E94110D8B01BE01EC01FB2EBC
:101B60006F5771097595771F880B990B0E948E0B23
:101B700028E132E741E35FE30E942D0CAF2D98018D
:101B8000AE01FF900F911F91CF91DF910E948F0ABC
:101B90000C94E00BFA01DC01AA0FBB1F9B01AC0106
:101BA000BF5728F4222733274427507820C0B75145
:101BB00090F4AB2F0024469537952795011CA395EB
:101BC000D2F3002071F0220F331F441FB395DAF3D4
:101BD0000ED00C94770A61307105A0E88A07B946E7
:101BE00030F49B01AC0166277727882790783096E0
:101BF00021F0208331834283538308959F3F31F046
:101C0000915020F4879577956795B795880F911D2A
:101C10009695879597F9089597FB072E16F40094EB
:101C200007D077FD09D00E94420E07FC05D03EF494
:101C3000909581959F4F0895709561957F4F089578
:101C4000A1E21A2EAA1BBB1BFD010DC0AA1FBB1FC0
:101C5000EE1FFF1FA217B307E407F50720F0A21B32
:101C6000B30BE40BF50B661F771F881F991F1A949F
:101C700069F760957095809590959B01AC01BD01C9
:101C8000CF010895AA1BBB1B51E107C0AA1FBB1FB0
:101C9000A617B70710F0A61BB70B881F991F5A95F8
:101CA000A9F780959095BC01CD010895EE0FFF1F17
:0C1CB0000590F491E02D0994F894FFCF0A
:101CBC0000000000CC012C01590119028A016801B5
:101CCC007C0100000000FE03D1034804A703CA03F3
:101CDC00B703A8030D0A00466F756E642073656E1A
:101CEC00736F72004E6F20544353333437323520A8
:101CFC00666F756E64202E2E2E20636865636B20D4
:101D0C00796F757220636F6E6E656374696F6E7335
:101D1C00006B696C6C65640043757272656E74203F
:101D2C00537465702053706565643A202000433A03
:101D3C00090009523A090009473A090009423A09CF
:0E1D4C0000207374657020636F756E747300F1
:00000001FF
